:020000041000EA
:1000000000B5324B212058609868022188439860DF
:10001000D860186158612E4B002199600221596106
:100020000121F02299502B49196001219960352056
:1000300000F044F80222904214D00621196600F024
:1000400034F8196E01211966002018661A6600F04E
:100050002CF8196E196E196E052000F02FF8012189
:100060000842F9D1002199601B49196000215960AB
:100070001A491B48016001219960EB211966A021F2
:10008000196600F012F800219960164914480160C1
:100090000121996001BC002800D000471248134993
:1000A000086003C880F30888084703B5996A0420EC
:1000B0000142FBD001200142F8D103BD02B5186610
:1000C0001866FFF7F2FF186E186E02BD00000240BE
:1000D000000000180000070000035F00212200005C
:1000E000F4000018222000A00001001008ED00E03C
:1000F00000000000000000000000000074B24E7A12
:1001000000200420F7010010C3010010C5010010F9
:10011000C1010010C1010010C1010010C101001097
:10012000C1010010C1010010C1010010C701001081
:10013000C1010010C1010010C9010010CB01001065
:10014000CD010010CD010010CD010010CD01001037
:10015000CD010010CD010010CD010010CD01001027
:10016000CD010010CD010010CD010010CD01001017
:10017000CD010010CD010010CD010010CD01001007
:10018000CD010010CD010010CD010010CD010010F7
:10019000CD010010CD010010CD010010CD010010E7
:1001A000CD010010CD010010CD010010CD010010D7
:1001B000CD010010CD010010CD010010CD010010C7
:1001C00000BE00BE00BE00BE00BE00BEEFF3058054
:1001D000103800BEF2EB8871F82C0010142D0010BE
:1001E0003402001090A31AE700201F49086006C8D7
:1001F00081F3088810471D48006800282FD10DA4FE
:100200000ECC002902D000F012F8F9E71849194A7B
:10021000002000E001C19142FCD1174988471749ED
:1002200088471749884700BEFDE701C901C29A42C5
:10023000FBD37047142D0010C00000204C0200209A
:10024000A02E00100000042000000420A02E0010AA
:10025000001004200010042000000000704709482E
:1002600001F07EFE0047000008ED00E0000000D035
:100270005002002024060020CD1D00105503001060
:10028000C11E00105756000006005250ABB3605319
:10029000982C001006005250861C0302A82C001057
:1002A000060052505422A29DB02C0010050052505E
:1002B000DE65F468A02E0010F8B5C0460448054B72
:1002C00010B5834203D0044B002B00D0984710BDDB
:1002D0004C0200204C0200200000000006480749A4
:1002E000091A8B10C90FC91810B5491003D0044B57
:1002F000002B00D0984710BD4C0200204C0200207B
:100300000000000010B5074C2378002B09D1FFF73F
:10031000D5FF054B002B02D0044800E000BF0123AD
:10032000237010BD5005002000000000D82B0010E5
:10033000054B10B5002B03D00449054800E000BF71
:10034000FFF7CCFF10BDC0460000000054050020A0
:10035000D82B0010F0B5DE4657464E464546E0B570
:100360000F2089B001F008FD5F4804AB03AA02A981
:1003700000F00AF9002803D15B495C4801F0A4FDB4
:10038000049A0399029800F0C3F8052001F09EFC3E
:100390000022030000901100062001F0A3FA544B44
:1003A000D0269B46534B80259A4680239B04994632
:1003B000514C36066D020B2000F0DCF980231B0146
:1003C00001210B20B36200F0B5F903210B2000F0EE
:1003D000C1F901277368DB0A1F42FBD0514646482A
:1003E00002F042FA03001233C2011B031343434AD3
:1003F000804613400593C0231B030693404B062100
:100400000B200793049500F07DF901210B2000F0EB
:1004100091F903210B2000F09DF906210C2000F03A
:1004200071F901210C2000F085F903210C2000F066
:1004300091F9C023802200212F485B01120102F0B4
:1004400091FAC0235B011A0000212B4802F0DCFA6C
:1004500042460021284804AB02F028FB2368C8204C
:10046000BB431F43276000F08DFE192000F082F986
:100470004B467362736163682B42FCD10323236193
:1004800063682B42FCD11F4B236163682B42FCD174
:100490001D4B236163682B42FCD13F2323616368BA
:1004A0002B42FCD18022194B520023616368134216
:1004B000FCD10122236A23685146934323605A46A4
:1004C00010230D481360424602F032FA4B460B20CF
:1004D000B36100F04FF9802301221B01B3627368FE
:1004E000DB0A1A42FBD166E7100F0400D82B00107C
:1004F000002020500C2C001000002050FFFFFF9F18
:10050000002C0040F9BD9F0870E79300C403010070
:10051000F0B583B005000E00140000F049F9002882
:1005200001D003B0F0BD154F01223B00012100971F
:10053000053001F0D7F933002A000094012110485A
:1005400001F0CAFB21002800714301F03BFD0400CB
:100550000C4B002200930221042001F0C3F9230078
:10056000002201210094052001F0BCF93B00022289
:1005700000210097062001F0B5F9D2E7006CDC02FB
:1005800000800240001BB700F0B54E465746DE46DD
:100590004546E0B585B00393554B06009A46A02327
:1005A0005B0099460191029201235B429C46E14423
:1005B0004B460F2B00D198E04E4F4F4B072457442A
:1005C0009A4569D821003800614301F0FBFC86425E
:1005D00048D0631E9846012C5ED01D00654338004C
:1005E000290001F0EFFC86425AD0A31E9B46022C44
:1005F0005CD02D1B2900380001F0E4FC864257D066
:10060000E31E9B46032C6ED02D1B2900380001F001
:10061000D9FC864250D0231F9B46042C52D02D1B60
:100620002900380001F0CEFC86424DD0631F9B4666
:10063000052C4FD02D1B2900380001F0C3FC864249
:100640004AD04346052B4CD03800E91F01F0BAFCD4
:1006500086421CD0062421003800614301F0B2FC20
:100660008642B6D10029B4D1A0464A46234B012088
:100670005343019A13604246029B1C60039B1A601D
:1006800005B0F0BCBB46B246A946A046F0BD002965
:10069000E0D101239846E8E7194B9C46E24483E702
:1006A0000029E2D0A31E9B46022CA2D1012489E797
:1006B0000029A5D1D846D8E70029FBD0231F9B46A7
:1006C000042CACD103247DE70029F3D0631F9B46A3
:1006D000052CAFD1042475E70029EBD04346052B48
:1006E000B2D105246EE702246CE70020C8E7C046BB
:1006F00070F72E00B0710B0050F80C00001BB70013
:1007000020D1FFFF094A830094464022634410B57C
:100710001C68C0006240C024144080225201134370
:100720001C60034B9C466044416010BD04C0014006
:1007300000400140064B80009C46604403684B40EB
:100740000121194080235B01184301607047C046B6
:1007500004C00140064B80009C46604403680901C8
:1007600059403023194080235B01184301607047D2
:1007700004C001400123D02283401206936293619A
:10078000094A83009446402263441968C0004A40E5
:10079000C02111408022520113431960034B9C4633
:1007A000052360444360704704C00140004001409D
:1007B000024B18688007C00F7047C04600C0064053
:1007C000EFF3108072B6034A1368002BFCD0BFF31E
:1007D0005F8F70472C0100D0BFF35F8F0022024B68
:1007E0001A6080F3108870472C0100D070B5EFF3C9
:1007F000108C72B60D4D2B68002BFCD0BFF35F8FB1
:100800000724CB08C618C05C01230C40A3401C0081
:100810000440034207D103433370BFF35F8F2C6062
:100820008CF3108870BD100001F04EFB2C0100D03D
:100830000021044B044ABFF35F8F02C39342FAD1F5
:100840007047C046000100D0800100D0044A1078F3
:10085000431CDBB2172B00D9102313707047C0461E
:100860009801002001238340002904D0034A13602B
:10087000034A13607047034A1360FBE780E200E01D
:1008800000E100E080E100E0024B10309B68800056
:10089000C058704700ED00E070B50D00EFF3108612
:1008A00072B60F4A1368002BFCD0BFF35F8F0D4B5D
:1008B00010309B6884001B590B4A934203D09D4221
:1008C00001D001F019FB074B9B681D51BFF35F8FEF
:1008D000BFF35F8F0022024B1A6086F3108870BD51
:1008E000240100D000ED00E0CD010010F0B5DE469F
:1008F00057464E464546E0B50C0083B0EFF31089ED
:1009000072B6584A1368002BFCD0BFF35F8F564B6A
:100910009A68030010339F00D559544A9046954277
:1009200032D0A54243D0524EAA1B2F2A2CD80122E6
:100930008240924651464F4A1268114001915146F9
:100940004D4A1160BFF35F8FEFF305829346002A93
:1009500033D101232A009A4393689C4208D177E05F
:100960004B005B189B00F3189968A1422AD01A002B
:10097000062151560029F3DA019B002B19D052466B
:100980003E4B1A603B4B1A60374B9B68DD51BFF3FF
:100990005F8FBFF35F8F0022324B1A6089F310889C
:1009A00003B0F0BCBB46B246A946A046F0BD150058
:1009B000EAE75246304B1A60E6E79342C9D001F0AD
:1009C0009BFAC6E706215956002921DB4A00501838
:1009D000800034188046A0689860E079D8710620BD
:1009E00020569871002824DBA488F01A6405241589
:1009F00044440019E0240005400D2402204398805F
:100A000052181F4B9200B6181A781970B271B3E7DA
:100A1000594600290FD1FF3191711A499180184927
:100A20000A789A71184A9B1B5B415A43120D0A704F
:100A3000A2E71648E3E7164A1649D21A083A5002C6
:100A4000400D01439980144952080A43DA8093E724
:100A50000621515613000029B8DA5A46002AEAD175
:100A60004546DCE7240100D000ED00E0CD01001098
:100A70009C01002000E100E080E100E080E200E075
:100A80002106002001BDFFFFAAAA000001BD000051
:100A9000D601002000F0FFFF00F8FFFF70B5EFF374
:100AA000058101240443EFF3108C72B6214A1368C8
:100AB000002BFCD0BFF35F8F1F4B05001F4AED1AC0
:100AC0006D416A43120D1E4D8900AE6852B27658D0
:100AD000A6421CD00621595691421CD012215956CB
:100AE000914222D01E215956914220D02A21595696
:100AF0000324914210D0134B19781A708171BFF3FF
:100B00005F8F00220B4B1A608CF3108870BDAB68AE
:100B10000D4C5C50EFE700246100091989005B1857
:100B2000FF21997109499980E5E70124F4E702243E
:100B3000F2E7C046240100D09C010020AAAA0000D0
:100B400000ED00E021060020CD01001001BDFFFFF7
:100B5000054B064A1360064A136053609360D360E6
:100B600013615361936170478080808000E400E0EE
:100B700004E400E0024B9C46614489000160704738
:100B80004000003410B50400FFF760FE01002000B3
:100B9000FFF7F0FFFF232371BFF35F8F10BDC04647
:100BA00010B50400FFF752FE01002000FFF7E2FF3E
:100BB000FF23A380BFF35F8F10BDC04683680B483F
:100BC00010B5844661446244090112019A1859180B
:100BD00054684B6801209C4201D802D00020C0B26A
:100BE00010BD12680B689A42F9D8F7E7FFFFFF0FB4
:100BF0000A4B1968EFF3108072B60A68002AFCD01D
:100C0000BFF35F8F1B68BFF35F8F00221A6080F312
:100C1000108840BF002000217047C0460C0600200D
:100C2000F8B557464E464546DE46E0B599460CAB0C
:100C30001C780DAB1B78060090469A460768002C7E
:100C400011D1BC7B002C42D065003B682D19033DBF
:100C500059194B78BB73002B00D1FB7300238B70A9
:100C60004B700B7004E065003B682D19033D59196A
:100C7000B2682A4B94464246E3181B0163441A604B
:100C80004A465A600A9A9A600B9ADA6000238B707F
:100C90004B700B707B7B9B46002B2BD02200594660
:100CA000B8687B6898473A68002816D05B46584673
:100CB0005B005B445519033BA870D118D35C002B33
:100CC00000D06B705B460C707B73A34513D0F0BCF7
:100CD000BB46B246A946A046F8BD5B465B005B44F6
:100CE000033BD3189C705119525D002A00D05A70F2
:100CF0005B460B707C7342464B46307D00F090FBA8
:100D0000051E06D05346002B03D12100306800F0A9
:100D1000ABFD0E9B002BDAD01D70D8E7FFFFFF0F55
:100D2000F0B5DE4657464E4645460023E0B58BB04B
:100D30000893674B8200D45800239B46099000F02B
:100D40000FFB626806000F00EFF3108572B61368A0
:100D5000002BFCD0BFF35F8F23689C465B7B9946DA
:100D6000002B00D169E0A2685A4B90464B441B010E
:100D7000984443461A685B6810001900801BB9410B
:100D8000002900DC63E0099800F04AFB0023002200
:100D9000984600230692079300239A466368BFF3A0
:100DA0005F8F5A461A6085F310885346002B08D18E
:100DB0000028C4D10BB0F0BCBB46B246A946A04641
:100DC000F0BD089B414618024B461843D047626865
:100DD00006000F00EFF3108572B61368002BFCD0ED
:100DE000BFF35F8F002F50DB33003B4302D02369FA
:100DF000002B61D12368D97B002907D04A00521803
:100E000019688C4649466244033A51709A7B002A1D
:100E100001D14A469A734A46DA734B46E168013B70
:100E2000CA5C0132CA545B4623616368BFF35F8FBB
:100E30005A461A6085F3108881E7002300229846FD
:100E4000002306920793002300209A46A6E7002974
:100E500002D1002800D096E70021604600F082FC15
:100E600043461A685B680692079343469B689A4616
:100E70004346DB689846E3684B44013B1B78089384
:100E80001B0203432361002088E72369002BB1D0B4
:100E9000069A079B921BBB41002B15DB5946049118
:100EA000012103914946029141460191514620009A
:100EB0000091FFF7B5FEB6E700F052FA32003B00B2
:100EC00012184B41002BE9DA0122034B5242E5E7AD
:100ED000F8050020FFFFFF0FFFFFFF7F10B5144C48
:100EE0006368002B04D00A211248FFF743FE10BDAF
:100EF0002300114A1021206800F04EFB032000F06F
:100F000023FA032000F0F6FA03200C4900F042FA1D
:100F1000FFF79CFC0A4B9C4603232375D0231B063A
:100F20001B6860446375074B80006060DC60DAE733
:100F3000E40100200C060020BD0B0010210D001064
:100F400040000034F8050020F0B54E464546DE4628
:100F50005746E0B585B0019310AB1B7806000393AC
:100F600000239946984600927268EFF3108B72B690
:100F70001368002BFCD0BFF35F8F3568AC7B002C6F
:100F80003DD067002B683F19033FDB195A78AA73DD
:100F9000002A00D1EA73B168474A8C46009801994B
:100FA000A21812016244106051600E9991600F996D
:100FB000D16042469A705A701A706B7B9A46002B29
:100FC00067D022001900A8686B6898472A68002833
:100FD00052D0534650465B005344D719033BB87078
:100FE000D118D35C002B00D07B7053460C706B7310
:100FF00054454FD0F3681B19013B187800E00020DE
:101000007368BFF35F8F42461A608BF31088002C21
:101010004FD04B46002B08D10002204305B0F0BC56
:10102000BB46B246A946A046F0BD039B002B3ED06E
:101030000E9B00200F999847030004000D000B43FE
:1010400035D000290ADA009A019B121BAB410092AD
:101050000193002B0ADB039B994685E700F080F99A
:1010600024184D4100940195002DF4DA0123134C0E
:101070005B4200930194EEE753465B005344033B0D
:10108000D3189C70D119D25D002A00D05A705346F3
:101090000B706C73307D009A019B00F0C1F98146A2
:1010A0000028A7D02100306800F0DEFBA2E7002076
:1010B000B4E701204042B1E7FFFFFF0FFFFFFF7FD2
:1010C000F0B504000D0006267642F717C64636191D
:1010D0006F4100B584B08F4214D811D000F040F9B0
:1010E00032003B00121A8B41002B15DC002B3ED046
:1010F0002000290000F03EF904B080BCB846F0BDE5
:101100008642EBD90026002700F02AF932003B0086
:10111000121A8B41002BE9DD002302930193154B3A
:101120003200009314483B00FFF70EFF0028DFDB7E
:1011300000239846BC46114A114F7B6A9C4504D84F
:10114000B96A8E42D4D99C45D2D11168EFF3108090
:1011500072B60B68002BFCD0BFF35F8F1368BFF330
:101160005F8F4146196080F3108820BFE5E7002AB1
:10117000BED0D1E7F10B0010E40100200C060020E6
:101180000040054070B5060000F0EAF8FA220400BD
:101190000D00002330000021920001F0ABF900198E
:1011A0006941002902DBFFF78BFF70BD0120014977
:1011B0004042F8E7FFFFFF7FF0B5EFF30583CE462F
:1011C000474680B505000C0085B0002B12D02C4A94
:1011D0000020536A9C4203D8926A0130AA4204D389
:1011E00005B0C0BCB946B046F0BDE01A421E904101
:1011F000C0B2F5E7234E02930193234B0200009304
:1012000030000B00FFF7A0FE031EE0DD20BF716879
:10121000EFF3108772B60A68002AFCD0BFF35F8F25
:10122000DAB294463068427B62451DD0FF221A40F4
:101230005100894601689144884649464144033932
:101240008978002913D0F1681B0A88464244013A84
:101250001278DBB29A420FD07368BFF35F8F00221F
:101260001A6087F31088B2E7FF221A40EBE7326971
:101270009342F1D13161EFE7614600F0F5FAEBE717
:1012800000400540E4010020F10B0010F0B5EFF341
:101290000582D6464F4646461000C0B51038EFF3DB
:1012A000108872B6214C2368002BFCD0BFF35F8FEF
:1012B0000123190081401E4D1F006963AA461D4D80
:1012C00029601D4D2E78AC463500C5402F402B427D
:1012D00009D1BFF35F8F276088F31088E0BCBA465E
:1012E000B146A846F0BD5346144D5F6A83005D5970
:1012F000AF420ED3124A8E439B5862461670BFF31C
:101300005F8F0022226088F31088002BE6D0984778
:10131000E4E70C4B92009C46624413681360BFF3F1
:101320005F8F0023236088F31088D7E7280100D05F
:10133000004005403C7005402206002010060020B9
:1013400074050020D03F054010B50100024A034853
:10135000FFF74CFA10BDC0463C2C001020060020C0
:10136000034B596A0A00986A596A8A42FAD170474F
:1013700000400540064A536A9942FCD807D1044B05
:1013800002E05A6A914202D19A6A8242F9D37047C6
:101390000040054070B504000D00EFF3108672B6F2
:1013A0001A4A1368002BFCD0BFF35F8F002D1BD0AF
:1013B0002000FFF769FA164981420AD02000FFF7A2
:1013C0006BFA01212000FFF74DFA0123A340114AD7
:1013D0001360114BA400E550BFF35F8F00220B4B4D
:1013E0001A6086F3108870BD0B4BA200D550012205
:1013F000A2400A4920000B7893430B700449FFF781
:1014000075FA00212000FFF72DFAE5E7280100D04A
:101410008D1200103860054074050020220600205F
:10142000F0B54F46D6464646C0B507002C4C616A1B
:101430000D00A66A616AA942FAD18B4208D805D08C
:101440000120E0BCBA46B146A846F0BDB242F7D989
:10145000EFF3108A72B6234801680029FCD0BFF36D
:101460005F8F0125BD4020491D4C8846097889467B
:101470002943C9B28C46414660460870391D1B4855
:10148000890065630A51B9000B50216A0020294286
:1014900019D0616A0800A66A616A8142FAD18B425A
:1014A00019D801D1B24216D8CC4516D00C4B1F200A
:1014B0001D625D6301230740BB400D4A1E38136067
:1014C00043464A461A70BFF35F8F0022054B1A60ED
:1014D0008AF31088B5E70020F5E70120F3E7C0465E
:1014E00000400540280100D0220600201006002000
:1014F00080E200E0EFF3108C72B60A490B68002B13
:10150000FCD0BFF35F8F01238340074A0748136273
:1015100002789A430270BFF35F8F00230B608CF355
:1015200010887047280100D00040054022060020A6
:1015300070B5050014001600002915D00C00002A13
:1015400012D080686B689847296800280ED0730015
:101550009B196200033B1219CB18033A9C70881840
:101560008A5C002A15D10670200070BD63001B192B
:101570007200033B9219CB18033A9E7088188A5C5C
:10158000002A02D104703400EEE75A70047034006F
:10159000EAE75A700670E7E730B583600023CCB203
:1015A00043730133047342608373C4730D00006896
:1015B000012C06D9421C0133DBB2137003329C426A
:1015C000F9D1FF2129404B00591800234018033856
:1015D000437030BDF8B5CE46474606000C0080B5D6
:1015E000002907D04D0003686D18033D5A1957783C
:1015F000002F04D12000C0BCB946B046F8BD790028
:10160000C9190339884643445978894600215970DD
:10161000517073683A002100806898473368002849
:1016200014D042469A18947059195B5D002B00D073
:1016300053700F70270049463000FFF7CBFF390089
:1016400002003000FFF774FF0400D3E74246414632
:101650005D19AF709A185B5C002B00D06B70147032
:10166000E9E7C046F0B557464546DE464E46E0B58A
:101670000D006B0001685B19DF1E0400C85D83B0BC
:101680000192CA19002850D043001B18033BCB1805
:101690005E78B446002E1AD1019E002E42D0E67B21
:1016A000002E04D073009B19CB18033B5D70A37B05
:1016B000002B00D1A573E57300282FD100235370B0
:1016C00003B0F0BCBB46B246A946A046F0BD7200CE
:1016D0006244033A89184A78904600224A7091463B
:1016E0005A70010032002000FFF722FF4346824675
:1016F000002B07D05B0021684344033BCB185A788A
:10170000002A16D1424651462000FFF711FF2168FA
:10171000019BCA19002BC2D10028CFD043001B184F
:10172000033BCB1800219970C8E7019B002BB6D171
:10173000C4E75000801803380918487883464846A3
:101740004870587041462000FFF7F2FE5946804627
:101750002000FFF73FFF414602002000FFF7E8FEB0
:101760008046CFE7F0B557464546DE464E46E0B5E3
:1017700083B00191457B04006B0000685B19DF1E9C
:10178000C15DC219002952D04B005B18033BC3183E
:101790005E78B446002E1CD1019E002E44D0E67B1C
:1017A000002E04D073009B19C318033B5D70A37B0C
:1017B000002B00D1A573E573002931D10023280047
:1017C0005370617303B0F0BCBB46B246A946A04655
:1017D000F0BD72006244033A8018427890460022BD
:1017E000427091465A7020003200FFF7A1FE434636
:1017F0008246002B07D05B0021684344033BCB1893
:101800005A78002A17D1424651462000FFF790FE31
:10181000019B01002068C219002BC0D10029CDD046
:101820004B005B18033BC31800209870C6E7019B70
:10183000002BB4D1C2E7500080180338091848784B
:10184000834648464870587041462000FFF770FEB6
:10185000594680462000FFF7BDFE414602002000A9
:10186000FFF766FE8046CEE770B5040000292CD055
:10187000437B8B422ED00568480040180338281857
:101880008278002A21D053009B18033BEA5CEE18B3
:101890008A4202D11BE0002A08D053009B18033B68
:1018A000EB185A788A42F6D142785A700023012206
:1018B000837043702000FFF7D5FE617B020020009B
:1018C000FFF736FE6073012000E0002070BD437812
:1018D0003370EBE701221900FFF7C4FE60730120AB
:1018E000F4E7C046F0B54546DE4657464E46E0B5FD
:1018F00083B001920C9A050088469A4200D976E09E
:101900001A0E93461E023000002359460C9A00F02E
:1019100097FB384B6C009C466419A40064446368D0
:101920000700834200D260602B1FDBB29946012B77
:1019300037D9C02380229B01234312011A602E4B0A
:10194000AD0059599A46002907D0586900F03AFB72
:10195000431C5800C0180338FDD2019A2368520175
:101960005340E0221A4080235B0123431A604A4619
:10197000012A2FD9802380229B01234312011A6060
:10198000300000233A005946676000F059FB534687
:101990005851012003B0F0BCBB46B246A946A04650
:1019A000F0BD4346012BC4D1C02303229B01234336
:1019B0001A60023AA3681A42FCD0019A23685201C5
:1019C0005A40E0231A4080235B0123431A600A4AED
:1019D000AD00924642462168514003220A401A60F7
:1019E000012243469A40A3681A42FCD0C2E7002075
:1019F000D0E7C046008000408405002030B50C20B0
:101A000083B000F0C7F9FEF7D3FE00280ED0994B43
:101A1000994A1A605A609A60DA601A615A619A614A
:101A2000DA611A62954A5A6203B030BD944CA067DD
:101A300000F0B8F90122934B1A60636C012BFCD1C2
:101A40000322914B1A608E4A936B012BFCD1013318
:101A500001218E4A8E480093043300F03DF905239E
:101A60008C4A009301218C4800F036F98B4B5A6860
:101A7000FF2A02D8802252005A6080227D4C824B7D
:101A800021691201854D1A60002907D0606900F0B4
:101A900099FA431C5800C0180338FDD2E0217F4B4F
:101AA00002201A681140802252012A4311601968ED
:101AB000484003210140116004219A681142FCD082
:101AC0008022802192012A43090111608022520064
:101AD0005A60734B2361734B5968FF2900D85A60D1
:101AE0000321684A6F4B116002399A681142FCD099
:101AF000E0201A681040802252011A4310601868D2
:101B00004840032101400220116066498A68104262
:101B1000FCD0802292011343802212011A6080229D
:101B2000614B52004A606361604B5968FF2900D8DD
:101B30005A6080225E4BE16912015C4D1A600029F7
:101B400007D0606900F03EFA431C5800C018033803
:101B5000FDD2E02255490B681A4080235B012B43DC
:101B60001A60802380229B012B4312011A6080227D
:101B7000414B52004A60E3614E4B5968FF2900D83F
:101B80005A6080224C4B216A12014A4D1A6000298A
:101B900007D0606900F016FA431C5800C0180338DB
:101BA000FDD2E02243490B681A4080235B012B439E
:101BB0001A60802380229B012B4312011A6080232C
:101BC00080225B004B602C4BD20223623B4B596856
:101BD000914200D25A608022394B616A1201374D1E
:101BE0001A60002907D0606900F0ECF9431C580026
:101BF000C0180338FDD2E02230490B681A40802318
:101C00005B012B431A60802380229B012B4312012E
:101C10001A608023DB024B60184B6362294B5A68C1
:101C2000FF2A02D8802252005A608022264BA169E6
:101C30001201244D1A60002907D0606900F0C2F932
:101C4000431C5800C0180338FDD2E0221D490B6820
:101C50001A4080235B012B431A60802380229B0162
:101C60002B4312011A6080235B004B600E4BA36173
:101C7000DAE6C04684050020006CDC021BB70000D9
:101C8000008000403CB0004030B00040002F685958
:101C900000800240008C864700C002403080004037
:101CA000001BB7003C80004040597307548000403F
:101CB00054B000406080004060B000406C80004044
:101CC0006CB000404880004048B00040014B8000AC
:101CD000C058704784050020F8B5040021481D0055
:101CE00017000E0000F06EF90100380000F06AF9EC
:101CF000069B29041B0319432368002B20DB1A4B86
:101D00001A4DE21853425A4180235B019C4612034C
:101D1000174B62441A60174B1A601700AB689F4359
:101D2000FBD1C022231D92011A4321232660A0600B
:101D300013602368002BFCDA0823E1601360F8BD10
:101D40003F2322681340B342D9D1A3681B051B0D62
:101D50008342D4D1EE22E368D20213408B42CED12B
:101D6000EDE7C046001BB7000040FDBF00C00040CB
:101D700000E0004000F00040044B00011B685840A8
:101D8000F0231840024B18607047C04600400640E0
:101D9000005006408023024A9B000343D3627047F1
:101DA00000800540AA23064A1B0113602F23054922
:101DB000D360054B19605368002BFCDA7047C046AE
:101DC0000040024000B0FA00006002402C4B2D4A57
:101DD00070B51A602C4A2D4B2D491A6014008B687F
:101DE0009C43FBD12B4D2C4EB54208D2013E761BB5
:101DF000B60808CD984723000134B342F9D1FFF764
:101E0000FDFD264A214B1A60214A9368DB43DB0122
:101E1000DD09002BF9D14022214B224C224E9A673A
:101E20005A671A67DA66B44208D223682000002B8A
:101E300020D00834FEF7B4FEB442F6D31B4E1C4C3F
:101E4000C022A168300000F0BFFBA660FEF7F0FCE6
:101E5000FEF77EFEFFF742F8164C174EB44208D24A
:101E6000013E361BB60808CC98472B0001359E4230
:101E7000F9D170BD0834FEF785FEB442D5D3DDE755
:101E800000E00040BFCDFBFEFE7F3C0000F00040C4
:101E900000C000403802002048020020FFFFFF0180
:101EA00000F0014030020020380200200000002035
:101EB00000ED00E0480200204C02002000BEFDE7DB
:101EC00010B5FFF7FBFFC0460FB400B5084883B05C
:101ED00000F0ACFC049B002B07D005A91800019171
:101EE00000F018F8034800F0A1FC0120FFF7E6FF1E
:101EF000602C0010702C001010B50148FFF7E4FFB3
:101F0000742C001010B5002800D110BD00F042FC68
:101F1000FBE7C04610B5094A0300146884B0002CE2
:101F200008D0012200910648524203A9A04701208F
:101F300004B010BD00F07AFC0020F9E7F4050020A1
:101F4000051F001001480421014B18471002002012
:101F5000811F0010014B9B681847000010020020F1
:101F6000142310B50100188804331B88984710BD4E
:101F7000162310B50100188802331B88984710BD3E
:101F8000F8B54746CE4680B50F1E19D014239946A2
:101F9000043304000025012698464B461888434622
:101FA00021681B88984701C4431E9841013540426F
:101FB0000640AF42F1D13000C0BCB946B046F8BDD2
:101FC0000126F8E7114A936F9B0813D210665166F9
:101FD000002905D0FFE7FFE7FFE7516F106F70475B
:101FE00004B5002801D00020C04300F0E5FD002129
:101FF00004BDC046F0B5146E556E576F166FFFF7EF
:10200000E5FF1466556657671667F0BD000000D0FF
:1020100094464A4A926F9208624601D228E0C0462E
:10202000F0B5464E346E756E776F366F00F020F85F
:102030009446424A14665566576716676246F0BD75
:1020400094463E4A926F9208624601D254E0C046DE
:10205000F0B53A4E346E756E776F366F00F04CF80F
:102060009446364A14665566576716676246F0BD51
:10207000002B24DB11D000293EDA00B5C9434042D1
:1020800000D1013100F038F8C943404200D101319C
:10209000DB43524200D1013300BD002AEBD10028BE
:1020A00001D1002905D00020C90FC90701D1C043C3
:1020B000410800B500F078FD0022002300BD00B506
:1020C00000290ADBDB43524200D1013300F014F84F
:1020D000C943404200D1013100BDC943404200D153
:1020E0000131DB43524200D1013300F005F8DB43FC
:1020F000524200D1013300BD002923D1002B18D159
:10210000002A0CD0BC460D4F38667A6600210023A9
:10211000FFE7FFE7FFE77A6F386F674670470028F1
:1021200001D00748010000B500F03EFD0022002369
:1021300000BD02000B00002000217047000000D00D
:10214000FFFFFFFF002B00D0BFE0130C28D1002AB7
:10215000E7D080B4114F39667A66FFE7FFE730B405
:10216000040C7B6F396F1B0423433B667A66FFE7E1
:10217000FFE7FFE7C04684B27B6F3D6F1B0423433C
:102180003B667A66FFE7FFE7C04600232C042D0C70
:102190007A6F386F00196941B0BC7047000000D0F9
:1021A000F0B594460025140E01D112020835140F23
:1021B00001D112010435940F01D192000235D40FE0
:1021C00001D152000135D40B0134254F7C66254CDA
:1021D0003C660E0C93B2FFE7FFE7FFE73C6F6643F8
:1021E000360C7703BE467343DF0B5B04C01AB9415C
:1021F000130C7343DB18C91ACE086643360CB64479
:1022000093B273431F0F1B01C01AB941130C7343E0
:102210001F0B1B05C01AB941860D8F023E43664352
:10222000360C092D24DB520A7243801A7703460AC2
:102230006643360C16235B1BDE40DF40BF19644645
:102240006643821B7046043506330100D940A8401E
:10225000C01900D30131A24206D20023F0BD000014
:10226000000000D0FFFFFFFF121B0130F3D3F1E7A6
:1022700009277F1BFE406446A2B27243801A00D237
:102280000139220C7243130C1204821A99410B007B
:102290007046043513370100F940A840801900D377
:1022A0000131002B02D1A2420AD2F0BD013000D38D
:1022B0000131121BFAD2013BF8D1A24200D2F0BD8B
:1022C000013000D30131121BF7E7F0B51C0C00D030
:1022D00080E00CB400251C0A04D11B02160E334307
:1022E000120208351C0B04D11B01160F33431201D7
:1022F00004359C0B04D19B00960F334392000235AA
:10230000DC0B02D192185B4101351C009718644127
:102310000134464F7C66464C3C660E0CFFE7FFE7F7
:10232000FFE7C0463C6F6643360C7703BE4697B264
:102330007743C01B00D20139C01B00D201399FB2C4
:102340007743C91BC91B170C77437E04FF0B801B07
:10235000B941CE086643360C0C2D33DBB644120B64
:102360001F053A431B0B97B27743C01B00D20139BC
:102370009FB27743C91B170C77433E043F0C801B69
:10238000B941860D8F023E43664329277F1BFE40DD
:102390000C3D7746AF40BF1930BCA2B2ABB272431E
:1023A0007343801A9941220C7243130C1204801A51
:1023B000994102000B000137001BA941F9D2781E98
:1023C0000021F0BD0C277F1BFE4077467F0BAF40FE
:1023D000FF19E0E700245D1C07D0144F7D663966C5
:1023E000FFE7FFE7FFE7FFE73C6F95B29EB265436B
:1023F0006643401BB141150C1E0C65436643360411
:102400002F0C3E432D04401BB141994204D20200DF
:102410000B0020000021F0BD01D19042F7D3801ABB
:10242000994101349942F2D3F6E70000000000D050
:10243000FFFFFFFF132370B51D78012D15D010DDB0
:102440001C48FFF795FD1C4C01008022200000F085
:10245000BBF8022D06D01948FFF782FD184B186013
:1024600070BD154C174BA364F5E7164B124C236057
:102470006360A360E36023616361A361E36123623E
:102480006362A362E36223636363A363E36323641E
:102490006364A364E36423656365A365E3652366FE
:1024A0006366A366E36623676367A367E367A36462
:1024B000D1E7C04653440000500300204C330000D5
:1024C00008060020C924001007B5604601880A0AE2
:1024D0000230DF2AFAD1C9B2820804D302884088C8
:1024E0000004104300E00068014A5050039007BD0B
:1024F0005003002051434343C9188C46110C83B24A
:102500004B4310B4040C614392B280B25043624317
:102510001C041B0C001910BC59411304120CC018E8
:102520005141614470470000132310B512481C78D4
:10253000FFF71EFD0100012C0AD003DD80220F48A9
:1025400000F042F80E48FFF70BFD0E4B186010BD6F
:102550000A4C5422200000F037F80B4B6365A3654A
:10256000E36523666366A366E36623676367A36721
:10257000E3672362E361E5E753460000500400206F
:102580004C330000080600208D25001007B560467A
:1025900001880A0A0230DF2AFAD1C9B2820804D3BC
:1025A000028840880004104300E00068014A50504F
:1025B000039007BD5004002001480421014B184737
:1025C00020020020811F0010014B5B6818470000AB
:1025D00020020020030010B5080011001B68984776
:1025E00010BDC046F0B546464F46D646C0B5437D01
:1025F00080460E001700002B46D0002A3FDD4B1E00
:102600009946244B0125002400209A460DE04B46B4
:102610001B5D0D3B5A425341325DDBB20A2A0BD09F
:102620002B00013401359F421ADD002CEFD14346C7
:10263000325D1B7D0A2AF3D1002BF1D1A04204DACE
:102640004346211A1B6830189847434650461B687A
:1026500002219847013428002B0001359F42E4DC19
:10266000874204DD4346391A1B6830189847F6192B
:10267000013E33780D3B5A42534142461375E0BC4C
:10268000BA46B146A846F0BD03681100300098472D
:10269000F5E7C046E02C0010F0B5DE4657464E4642
:1026A0004546E0B585B017001C0006000D00FEF79A
:1026B00057FE0023304A12184B41002B58DB2F499C
:1026C00008008A4600F080FA01906B1C03D13000AC
:1026D00000F032FA0500002C25D1294B9846294BF1
:1026E0001C68002C15D0002F20D1274F02E0246950
:1026F000002C0ED02368002BF9D03B68002B01D0B2
:10270000A342F4D120002A003100C0472469002CE4
:10271000F0D1019B002B27D105B0F0BCBB46B246DF
:10272000A946A046F0BD194B9846D8E7164B9946E6
:1027300002ABDF1D0A239B4602E02469002CE8D08F
:102740002368002BF9D04B461B68002B01D0A34215
:10275000F3D12A0031002000C0475B460122390036
:1027600020003B70C047E8E7504600F015FAD3E779
:102770000122074B5242A2E740420F0030020020E4
:10278000E5250010EC050020F0050020D5250010FF
:10279000FFFFFF7FF0B5CE46474680B583B06B465E
:1027A0000600DD1D2870FEF7DBFD00231A4A121813
:1027B0004B41002B2BDB19490800884600F004FA36
:1027C000174B81461C68002C14D0164F02E0246978
:1027D000002C0FD02368002BF9D03B68002B01D0D0
:1027E000A342F4D1200001222900FFF7FBFE246957
:1027F000002CEFD14B46002B05D1300003B0C0BCFC
:10280000B946B046F0BD404600F0C6F9F5E70122F2
:10281000054B5242CFE7C04640420F003002002035
:10282000EC050020F0050020FFFFFF7F70B50400DD
:1028300000F082F900230100050001222000FFF7CB
:102840002BFF084B1C68002C06D06368002B05D0BA
:1028500098472469002CF8D1280070BD2469002C09
:10286000F3D1F9E7EC050020F0B5D6464F464646D1
:102870008846C0B505240600FDF7A2FF43461F7930
:102880001C57284B8146F01843425841264B9A4624
:1028900083009C4653466246985801222023BA4042
:1028A000DB1B013A002C32DB9C422DDCA2401500E0
:1028B000104229D1002F1AD043465A7819781202B3
:1028C000114342469B78D2781B040B4312061A43ED
:1028D0009046002241465300C95A4B0B00D10919BA
:1028E000131912339B00013299519742F2D8534683
:1028F000624605439D504846FDF76EFF2000E0BC50
:10290000BA46B146A846F0BD0848FFF7DDFA002BED
:1029100002DAF9E7013BF7D315009D401C000542A0
:10292000F8D1C7E70000D0AF6C050020E42C001000
:1029300070B501250B7904009D40013D9540FDF7E0
:102940003FFF064B06499C46644463425C41A40039
:102950006258AA436250FDF73FFF70BD0000D0AF40
:102960006C050020F0B5DE4657464E4645468B4680
:10297000E0B51C0085B04B0003935B44DB00C51839
:102980002F00DC3716003A68844600922A00CC32C9
:102990001268CC330192C022634492011343802217
:1029A000920202901A60002C19D08023DB049A4610
:1029B00001239946E0231B029846D8352000FFF7F3
:1029C000C9FA5246430113433B6033004A46C340B1
:1029D0001340424613432B60631E1C40EED1029B02
:1029E00003989C465844C00060440300009ADC33BE
:1029F0001A60019BCC30036005B0F0BCBB46B24608
:102A0000A946A046F0BDC046F0B5DE4657464E4644
:102A100045468B46E0B51C0085B04B0003935B44F4
:102A2000DB00C5182F00DC3716003A688446009298
:102A30002A00CC321268CC330192C0226344920146
:102A400013438022920202901A60002C18D0802337
:102A5000DB049A4601239946134BD835984620004B
:102A6000FFF778FA5246430113433B6033004A466E
:102A7000C3401340424613432B60631E1C40EED1FB
:102A8000029B03989C465844C00060440300009A8F
:102A9000DC331A60019BCC30036005B0F0BCBB4650
:102AA000B246A946A046F0BD80E00000F0B5012581
:102AB0008D400468AC434D0004606C18E4000419B8
:102AC0002600C836002B28D01F68DC3437605F68CA
:102AD00077609F68DB68B76023606D18EB001D00AE
:102AE0008024D035451964012C4380252D062560AE
:102AF000256001250F4C2E008C4084600C1DA640E3
:102B0000802408318D401F21A4010443C0180A40CD
:102B1000D830266025600260F0BD80277F023760D4
:102B2000F8277F027760C027DC343F03B76023605B
:102B3000D3E7C0460101010110B583070AD00300A5
:102B4000032102E001330B4205D01A78002AF9D1A3
:102B5000181A10BD030019680C4A0D4C8A188A43D4
:102B600022420FD15968094A04338A188A43224203
:102B700008D15968054A04338A188A432242F1D0A1
:102B800000E001331A78002AFBD1E1E7FFFEFEFEE8
:102B900080808080F8B5C04601B40248844601BCFC
:102BA000604700BF5D01002001B40248844601BCBB
:102BB000604700BF8501002001B40248844601BC83
:102BC000604700BF8501002001B40248844601BC73
:082BD000604700BFC1000020B6
:102BD80053797374656D20636C6F636B206F662027
:102BE8002575206B487A2063616E6E6F742062656C
:102BF8002065786163746C792061636869657665BE
:102C080064000000142C001013FF0000A08827A8FF
:102C1800A08847A88F280F2844088708A09827B8B5
:102C2800A09847B88F384D188E10A09827B851181B
:102C380020880000486172647761726520616C6168
:102C4800726D20256420616C726561647920636C03
:102C580061696D65640000000A2A2A2A2050414EE5
:102C68004943202A2A2A0A000A000000486172649F
:102C7800206173736572740052656C6561736500D9
:102C8800626F6F74325F7732357130383000000010
:102C9800312E352E310000007069636F000000008E
:102CA8005069636F524748004F63742020362032C2
:102CB8003032330006005250BBFF3CB6A02C001047
:102CC80006005250E182887F882C0010060052507E
:102CD800D3F07542802C00100D0A00004E6F207052
:102CE800726F6772616D2073706163650000000028
:102CF800AC020010A002001094020010BC2C0010BE
:0C2D080088020010C82C0010D42C001011
:102D1400F0B5C646150000B504001E000268EFF3C6
:102D2400108172B61368002BFCD0BFF35F8F0423AD
:102D3400E356002B2DDB2268BFF35F8F0020106069
:102D440081F31088D0221206127852B290469A4229
:102D540003D1002080BCB846F0BD00270BE02368F7
:102D6400BFF35F8F1F6081F310882800310000F0EB
:102D740033F80028EDD12268EFF3108172B613689E
:102D8400002BFCD0BFF35F8F23797F2BE7D9434619
:102D940002E0D0231B061B6823712368BFF35F8FF7
:102DA40000221A6081F310880120D3E70268EFF350
:102DB400108172B61368002BFCD0BFF35F8FFF2322
:102DC40003710368BFF35F8F00221A6081F31088D8
:102DD40040BF70477047C04601B40248844601BCF6
:102DE400604700BFB911001010000000000000008F
:102DF40000000100000000000000000000000200CC
:102E040000000000000000000000030000000000BB
:102E1400000000000000FF000000000001B5486849
:102E240001318E460047704609380149884701BD83
:102E34009D0A0010FC010020000000005002002048
:102E4400AC0500200000000000000000BC050020CC
:102E5400000000000000000010000000000000005E
:102E6400503300004C330000543300005233000050
:102E74004D5300004D430000533400004334000020
:102E84000000000000000000B9250010451F0010DC
:0C2E940035240010292500103103001027
:04000005100001E9FD
:00000001FF
